:020000040800F2
:100000003806002045010008090F00080B0F000802
:100010000F0F0008130F0008170F00080000000062
:100020000000000000000000000000001B0F00089E
:100030001D0F0008000000001F0F0008210F00081E
:100040005F0100085F0100085F0100085F01000810
:100050005F0100085F0100085F0100085F01000800
:100060005F0100085F0100085F0100085F010008F0
:100070005F0100085F0100085F0100085F010008E0
:100080005F0100085F0100085F0100085F010008D0
:100090005F0100085F0100085F0100085F010008C0
:1000A0005F0100085F0100085F0100085F010008B0
:1000B0005F0100085F0100085F0100085F010008A0
:1000C0005F0100085F0100085F0100085F01000890
:1000D0005F0100085F0100085F0100085F01000880
:1000E0005F0100085F0100085F0100085F01000870
:1000F0005F0100085F0100085F0100085F01000860
:100100005F0100085F0100085F0100085F0100084F
:100110005F0100085F0100085F0100085F0100083F
:100120005F0100085F0100085F0100085F0100082F
:10013000DFF80CD001F02CFB00480047510E0008FE
:10014000380600200648804706480047FEE7FEE7DD
:10015000FEE7FEE7FEE7FEE7FEE7FEE7FEE7FEE777
:1001600047020008310100080CB500200190009002
:100170006C48006840F480306A49086000BF6948F4
:10018000006800F4003000900198401C0190009835
:1001900018B90198B0F5A06FF1D16248006800F479
:1001A000003010B10120009001E000200090009884
:1001B000012843D15C48006840F010005A490860AB
:1001C0000846006820F0030008600846006840F018
:1001D0000200086053484068524948600846406839
:1001E00048600846406840F48060486008464068BF
:1001F00020F47C1048600846406840F4E8104860ED
:100200000846006840F08070086000BF45480068FC
:1002100000F000700028F9D04248406820F0030048
:10022000404948600846406840F00200486000BF0E
:100230003C48406800F00C000828F9D10CBD10B50E
:10024000FFF792FF10BD10B53648006840F001007E
:1002500034490860084640683449084031494860DC
:1002600008460068324908402E4908600846006880
:1002700020F4802008600846406820F4FE004860B2
:100280004FF41F008860FFF7DAFF4FF00060294944
:10029000086010BD10B5002100200022214B5B68D2
:1002A00003F00C0121B1042906D0082928D107E068
:1002B000214B224C236027E01F4B204C236023E07E
:1002C000184B5B6803F47010164B5B6803F48032C4
:1002D000022303EB904022B9194B4343174C236090
:1002E0000DE0104B5B6803F4003323B1144B434320
:1002F000124C236003E0104B4343104C236003E097
:100300000D4B0E4C236000BF00BF064B5B68C3F370
:1003100003130C4CE15C094B1B68CB40074C23607A
:1003200010BD000000100240002002400000FFF855
:10033000FFFFF6FE08ED00E000127A00000000204A
:1003400000093D000400002010B50446CC4884425A
:1003500008D10121042000F02DFB0021042000F031
:1003600029FB46E0C748844208D10121082000F05B
:1003700021FB0021082000F01DFB3AE0C248844226
:1003800008D10121102000F015FB0021102000F001
:1003900011FB2EE0BD48844208D10121202000F04D
:1003A00009FB0021202000F005FB22E0B848844230
:1003B00008D10121402000F0FDFA0021402000F08A
:1003C000F9FA16E0B348844208D10121802000F0F8
:1003D000F1FA0021802000F0EDFA0AE0AE488442F4
:1003E00007D10121801500F0E5FA0021A01500F0E9
:1003F000E1FA10BD10B50121084600F0DBFA00213A
:10040000012000F0D7FA10BD2DE9F0410246002589
:100410000026002000230024002791F803C00CF0E0
:100420000F0591F803C00CF0100CBCF1000F03D0C5
:1004300091F802C04CEA050591F800C0BCF1000F2C
:1004400031D0146800202BE04FF0010C0CFA00F3BF
:10045000B1F800C00CEA03069E4220D183004FF0A1
:100460000F0C0CFA03F7BC4305FA03FC4CEA040436
:1004700091F803C0BCF1280F06D14FF0010C0CFA23
:1004800000FCC2F814C00AE091F803C0BCF1480FA8
:1004900005D14FF0010C0CFA00FCC2F810C0401C52
:1004A0000828D1D31460B1F800C0BCF1FF0F34DDCF
:1004B000546800202EE000F1080C4FF0010808FA03
:1004C0000CF3B1F800C00CEA03069E4221D1830070
:1004D0004FF00F0C0CFA03F7BC4305FA03FC4CEA8F
:1004E000040491F803C0BCF1280F05D100F1080CF9
:1004F00008FA0CF8C2F8148091F803C0BCF1480F58
:1005000007D100F1080C4FF0010808FA0CF8C2F806
:100510001080401C0828CED35460BDE8F0814FF60F
:10052000FF710180022181700421C1707047024671
:10053000002093680B400BB1012000E000207047C1
:100540000146886880B2704702460020D3680B409D
:100550000BB1012000E0002070470146C86880B25E
:10056000704701617047416170470AB1016100E065
:1005700041617047C16070474FF480320A43826125
:100580008161826182698269704702460020434B23
:1005900018684FF68073184040EA021008433F4B3A
:1005A000186070473E49C8617047F0B50A4600239D
:1005B00000240021002500F00046B6F1004F02D1D2
:1005C000364EF16901E0354E7168C0F3034583B2E0
:1005D00000F44016B6F5401F08D121F070612F4E8F
:1005E000766826F070662D4F7E6012E000F480166B
:1005F000B6F5801F06D1032606FA05F4A14341F0A3
:10060000706106E0460D360103FA06F6B14341F08B
:10061000706122B1460D360103FA06F6314300F04F
:100620000046B6F1004F02D11C4EF16101E01B4EB5
:100630007160F0BD30B500228B071C0F0F2303FA49
:1006400004F2164B08338C1053F824309343134CA8
:1006500008348D1044F8253023468C1053F824308C
:100660008C07240F00FA04F423430C4C08348D103B
:1006700044F8253030BD0A49DC310860704700007D
:1006800000080140000C014000100140001401402E
:1006900000180140001C0140002001400000014002
:1006A00000002042DF48006840F00100DD4908609A
:1006B00008464068DC490840DA4948600846006856
:1006C000DA490840D74908600846006820F48020CD
:1006D00008600846406820F4FE0048604FF41F00A0
:1006E00088607047CF49096821F48031CD4A116094
:1006F0001146096821F480211160B0F5803F03D0D4
:10070000B0F5802F0ED106E0C649096841F480316A
:10071000C44A116007E0C349096841F4A021C14AF5
:10072000116000E000BF00BF704710B50146002215
:10073000002300204A11012A02D1BA4C236806E0A6
:10074000022A02D1B74C236A01E0B64C636A01F079
:100750001F02012494401C400CB1012000E0002045
:1007600010BD38B5002000900024002500BF3120C6
:10077000FFF7DBFF05460098401C00900098B0F59D
:10078000A06F01D0002DF2D03120FFF7CEFF08B1CD
:10079000012400E00024204638BD01460020A14A83
:1007A000106820F0F80040EAC10010607047A049CE
:1007B00008607047024600209A4B586820F47C106D
:1007C00042EA01031843974B5860704798490866FE
:1007D000704701460020934A506820F00300084308
:1007E000506070478F48406800F00C007047014629
:1007F00000208C4A506820F0F00008435060704799
:1008000001460020874A506820F4E06008435060A9
:10081000704701460020834A506820F4605040EA47
:10082000C1005060704729B17E4A527A02437D4B25
:100830005A7204E07B4A527A82437A4B5A7270476A
:100840007B49D8310860704701460020754A5068DE
:1008500020F440400843506070470021714A203224
:100860001170704A82F82010012802D004280AD1A1
:1008700004E001216B4A2032117005E00521694A2C
:100880002032117000E000BF00BF70476949086066
:1008900070476449096A0143624A116270476549B9
:1008A00044390860704730B500210022002400233D
:1008B0005C4D6D6805F00C0121B1042905D00829B3
:1008C00023D105E05C4D056022E05B4D05601FE033
:1008D000544D6D6805F47012524D6D6805F4803406
:1008E000022505EB92421CB9544D554305600BE0BF
:1008F0004C4D6D6805F400351DB1504D55430560F4
:1009000002E04D4D5543056002E04B4D056000BFD0
:1009100000BF444D6D6805F0F0010909484D6B5C5E
:100920000568DD4045603F4D6D6805F4E061090AEA
:10093000434D6B5C4568DD4085603A4D6D6805F45C
:100940006051C90A3E4D6B5C4568DD40C560354D60
:100950006D6805F44041890B3A4D6B5CC568B5FB89
:10096000F3F5056130BD29B12E4A526902432D4B82
:100970005A6104E02B4A526982432A4B5A617047FC
:1009800029B1284A92690243264B9A6104E0254A1C
:1009900092698243234B9A61704729B1214AD269F7
:1009A0000243204BDA6104E01E4AD26982431D4BA8
:1009B000DA61704729B11B4AD2680243194BDA60E9
:1009C00004E0184AD2688243164BDA60704729B1B6
:1009D000144A12690243134B1A6104E0114A126966
:1009E0008243104B1A6170471249403908607047C2
:1009F0000F49C86470470B49C87170470948406A7D
:100A000040F0807007494862704701460020054A5F
:100A100092680A400AB1012000E0002070470149B5
:100A200088727047001002400000FFF8FFFFF6FEDA
:100A3000000042428004424200127A0000093D0058
:100A4000140000202400002010B50446FB48844216
:100A500009D101218803FFF7ADFF00214FF4804049
:100A6000FFF7A8FF32E0F648844209D1012148048B
:100A7000FFF7ADFF00214FF40030FFF7A8FF25E09E
:100A8000F048844209D101218804FFF7A0FF00212A
:100A90004FF48020FFF79BFF18E0EB48844209D118
:100AA0000121C804FFF793FF00214FF40020FFF756
:100AB0008EFF0BE0E548844208D101210805FFF7CD
:100AC00086FF00214FF48010FFF781FF10BD2DE954
:100AD000F04786B005460E460024A24600BFA14658
:100AE0000027B08900B100BF2F462C8A4CF6FF705A
:100AF0000440F08804432C82AC894EF6F310044085
:100B0000B08831890843718908430443AC81AC8AB9
:100B10004FF6FF400440B0890443AC8201A8FFF7C0
:100B2000C2FEC648874202D1DDF810A001E0DDF820
:100B30000CA0A88900F4004040B10AEBCA0000EB09
:100B40000A1031684900B0FBF1F807E00AEBCA006F
:100B500000EB0A1031688900B0FBF1F86420B8FBA3
:100B6000F0F004012009642101FB1089A88900F438
:100B7000004040B1322000EBC900B0FBF1F000F0C2
:100B80000700044308E0322000EB09106421B0FBA9
:100B9000F1F000F00F0004432C8106B0BDE8F087AF
:100BA0004FF41651016000218180C18001810C2128
:100BB000418100218181704710B502460020108AD2
:100BC0004FF2FF0318400B884C8823438C88234343
:100BD000CC8823431843108210BD0021018041803E
:100BE0008180C180704721B1828942F400528281A4
:100BF00004E082894DF6FF731A4082817047F0B598
:100C00000346002400260025002040F66A17B9425A
:100C100000D100BF1846C1F3421401F01F0601279E
:100C200007FA06F5012C01D10C3004E0022C01D1A9
:100C3000103000E014301AB107682F43076002E05B
:100C40000768AF430760F0BD1AB1838A0B43838204
:100C500002E0838A8B4383827047028A4FF6F073E7
:100C60001A400282028A0A430282704782894FF246
:100C7000FF731A40828182890A438281704721B1C1
:100C8000828942F00202828104E082894FF6FD737C
:100C90001A4082817047028A4FF6DF731A4002823F
:100CA000028A0A430282704721B1028A42F48042DA
:100CB000028204E0028A4BF6FF731A4002827047F8
:100CC000C1F308028280704701468888C0F308009B
:100CD0007047818941F0010181817047028BD2B256
:100CE0000283028B42EA012202837047028B02F4E4
:100CF0007F420283028B0A430283704721B1828ABA
:100D000042F02002828204E0828A4FF6DF731A40AA
:100D10008282704721B1828A42F01002828204E00E
:100D2000828A4FF6EF731A408282704721B1828A1D
:100D300042F00802828204E0828A4FF6F7731A407A
:100D40008282704721B1828942F40042828103E0AD
:100D50008289C2F30E028281704721B1828A42F4F5
:100D60000062828204E0828A4FF2FF731A4082821C
:100D70007047828A4FF6FB731A408282828A0A4346
:100D80008282704721B1828A42F00202828204E0AC
:100D9000828A4FF6FD731A40828270470246002015
:100DA000B1F5007F00D100BF13880B400BB10120CB
:100DB00000E00020704701F40072B2F5007F00D11E
:100DC00000BFCA430280704770B50246002400236A
:100DD0000025002040F66A16B14200D100BFC1F3E1
:100DE000421501F01F03012606FA03F3012D02D17B
:100DF0009689334006E0022D02D1168A334001E085
:100E0000968A33400C12012606FA04F41688344000
:100E100013B10CB1012000E0002070BD10B500221C
:100E2000002340F66A14A14200D100BF0A12012437
:100E30009440A3B2DC43048010BD000000380140A0
:100E40000044004000480040004C0040005000407A
:100E50008EB000200A900B900C900D900690079099
:100E600008900990029003900490059000F05AF8C1
:100E700000F0B6F8184883684268016817A000F0CF
:100E8000E7FC154800680A90134840680B90124828
:100E900080680C901048C0680D90102006AB0AAA1C
:100EA000014600900AA800F011FB102002AB06AA30
:100EB0000146009006A800F085FB10220AA902A8AE
:100EC00000F028FC18B90CA000F0C2FC02E00CA055
:100ED00000F0BEFC00BFFEE72C02002063686970D2
:100EE00069643A203078253038582D253038582D0F
:100EF000253038580D0A00006F6B0D0A0000000005
:100F00006572726F720D0A00704700BFFEE700BF86
:100F1000FEE700BFFEE700BFFEE77047704770477F
:100F20007047000000B585B001210420FFF728FDBF
:100F300001218803FFF724FD4FF40070ADF8100085
:100F400018208DF8130003208DF8120004A9224800
:100F5000FFF75AFA4FF48060ADF8100004208DF8C6
:100F6000130004A91C48FFF74FFA4FF4E13000903A
:100F70000020ADF80400ADF80600ADF80800ADF8AB
:100F80000C000C20ADF80A0069461448FFF79FFDDD
:100F900001211248FFF727FE05B000BD70B50446D9
:100FA0000D46E1B20D48FFF78BFE00BF80210B48D4
:100FB000FFF7F4FE0028F9D0204670BD10B50446B6
:100FC00000BF20210548FFF7E9FE0028F9D00348BB
:100FD000FFF77AFE10BD0000000801400038014014
:100FE00006480068064908600448001F0068486019
:100FF000024808380068886070470000F0F7FF1F5B
:101000002C02002030B5034600200AE0002205E053
:1010100011F8014B03EB82052C54521C042AF7DB18
:10102000401C0428F2DB002030BD10B50346002030
:101030000AE0002205E003EB8204245C01F8014B86
:10104000521C042AF7DB401C0428F2DB002010BDF0
:101050002DE9F04105468846164605B136B9FDA092
:1010600000F0F6FB4FF0FF30BDE8F081B8F1100F53
:1010700006D04146FEA000F0EBFB4FF0FF30F3E757
:10108000344606F1B007002018E000BF15F8201024
:101090000A06042101FB0051497842EA0142042179
:1010A00001FB0051897842EA0121042202FB00522F
:1010B000D278114344F8201000BF401C0428E4DB20
:1010C000002034E0E168C1F30741F34A515C4FF07E
:1010D0007F4202EA0161A289C2F30722EE4B9A5CC9
:1010E0004FF47F0303EA02425140227BEA4B9A5CB1
:1010F0004FF47F4303EA02225140E268120EE64BAE
:101100009A5C514022685140E44A52F820205140F4
:10111000216122696168514061616269A168514041
:10112000A161A269E1685140E1611034401C0A28C4
:10113000C8DB06F1A00400210BE0002004E054F815
:10114000202047F82020401C0428F8DB103C1037F2
:10115000491C0B29F1DB002086E73FB502460B4610
:1011600000201AE0002115E053F82140C0F10305EA
:10117000ED00EC406D4605EB80056C5402EB8004FD
:10118000645C6D4605EB80056D5C6C4002EB800590
:101190006C54491C0429E7DB401C0428E2DB0020D6
:1011A00004B030BD10B5024600200DE0002108E07B
:1011B00002EB80035B5CB84CE35C02EB800463549D
:1011C000491C0429F4DB401C0428EFDB002010BD7F
:1011D00010B5024600200DE0002108E002EB80037C
:1011E0005B5CAF4CE35C02EB80046354491C042954
:1011F000F4DB401C0428EFDB002010BD1FB50146C6
:101200000020009001900290039000BF3AE000BFE0
:1012100011F82020130601EB8002527843EA0243C2
:1012200001EB8002927843EA022201EB8003DB7833
:101230001A434DF8202000BF5DF82020C3009A40DB
:101240005DF82030C400C4F12004E3401A434DF897
:10125000202000BF5DF82020120E01F820205DF84C
:101260002020120C01EB80035A703DF82020120A56
:1012700001EB80039A701DF8202001EB8003DA70E7
:1012800000BF401C0428C2DB002004B010BD1FB505
:1012900001460020009001900290039000BF3AE0C8
:1012A00000BF11F82020130601EB8002527843EAB8
:1012B000024301EB8002927843EA022201EB8003B1
:1012C000DB781A434DF8202000BF5DF82020C300D2
:1012D000DA405DF82030C400C4F12004A3401A4372
:1012E0004DF8202000BF5DF82020120E01F82020CC
:1012F0005DF82020120C01EB80035A703DF820208D
:10130000120A01EB80039A701DF8202001EB800384
:10131000DA7000BF401C0428C2DB002004B010BDFE
:1013200030B50246002400200CE002F0010505B1B2
:101330004C4001F080034D06290E0BB181F01B01DA
:101340005210401C0828F0DB204630BDF0B588B0B4
:101350000646544B0FCB8DE80F0000200CE0002117
:1013600007E006EB8002525C04AB03EB80035A54A7
:10137000491C0429F5DB401C0428F0DB00242AE08A
:10138000002525E004AA515D1DF82400FFF7C8FFE1
:10139000074605AA515D6A4602EB84025078FFF7C2
:1013A000BFFF474006AA515D6A4602EB840290786F
:1013B000FFF7B6FF474007AA515D6A4602EB840279
:1013C000D078FFF7ADFF474006EB840047556D1C12
:1013D000042DD7DB641C042CD2DB002008B0F0BD48
:1013E000F0B588B006462F4B10330FCB8DE80F00B9
:1013F00000200CE0002107E006EB8002525C04AB09
:1014000003EB80035A54491C0429F5DB401C0428D3
:10141000F0DB002455E0002550E004AA515D1DF8E2
:101420002400FFF77DFF074605AA515D6A4602EBDF
:1014300084025078FFF774FF474006AA515D6A4660
:1014400002EB84029078FFF76BFF474007AA515DDB
:101450006A4629E06B6579457870616E73696F6ED5
:1014600020706172616D206973204E554C4C0A00EA
:101470006B6579457870616E73696F6E206B657905
:101480004C656E203D2025642C204E6F74207375B2
:1014900070706F72742E0A0028000020F41C00087F
:1014A000280100201C1D000802EB8402D078FFF701
:1014B00037FF474006EB840047556D1C042DACDB1D
:1014C000641C042CA7DB002008B0F0BD2DE9F04F10
:1014D000E7B005460E4614461F46DDF8C0910D974D
:1014E0000DF13808002009900A900B900C9005909F
:1014F00006900790089001900290039004900DB11F
:1015000004B13FB96DA000F0A3F94FF0FF3067B010
:10151000BDE8F08F102E05D96BA000F099F94FF0BF
:10152000FF30F4E709F00F0028B16CA000F090F94B
:101530004FF0FF30EBE73246294605A800F0D8F817
:101540000EAA102105A8FFF783FD4FF0000A35E031
:10155000214601A8FFF756FD414601A8FFF7FDFD12
:101560004FF0010B10E008F1100801A8FFF71AFE78
:1015700001A8FFF743FE01A8FFF7E8FE414601A8D6
:10158000FFF7EBFD0BF1010BBBF10A0FEBDB01A841
:10159000FFF708FE01A8FFF731FE08F1100101A8CE
:1015A000FFF7DBFD01A80D99FFF73FFD0D98103007
:1015B0000D9010340DF138080AF1100ACA45C7D34E
:1015C0000020A4E72DE9F04FE7B005460E4614468B
:1015D0001F46DDF8C0910D970DF1E8080020099035
:1015E0000A900B900C90059006900790089001903F
:1015F0000290039004900DB104B13FB92FA000F008
:1016000027F94FF0FF3067B0BDE8F08F102E05D9F5
:101610002DA000F01DF94FF0FF30F4E709F00F00A6
:1016200028B12EA000F014F94FF0FF30EBE732465E
:10163000294605A800F05CF80EAA102105A8FFF7BE
:1016400007FD4FF0000A35E0214601A8FFF7DAFC5C
:10165000414601A8FFF781FD4FF0010B10E008F1B2
:10166000100801A8FFF713FE01A8FFF7B1FD4146DE
:1016700001A8FFF772FD01A8FFF7B2FE0BF1010B05
:10168000BBF10A0FEBDB01A8FFF7A2FD01A8FFF7F2
:10169000FEFD08F1100101A8FFF75FFD01A80D99FB
:1016A000FFF7C3FC0D9810300D9010340DF1E808D1
:1016B0000AF1100ACA45C7D30020A4E7706172611D
:1016C0006D206572722E0A006B65794C656E206D17
:1016D0007573742062652031362E0A00696E4C6580
:1016E0006E20697320696E76616C69642E0A000051
:1016F00040EA01039B0703D009E008C9121F08C094
:10170000042AFAD203E011F8013B00F8013B521E13
:10171000F9D2704730B504460020034600E05B1C58
:10172000934203D2E05CCD5C401BF8D030BD2DE984
:10173000F05F0546002092469B4688460646814655
:1017400040241BE0284641464746224600F041F827
:1017500053465A46C01A914110D3114618462246A4
:1017600000F028F82D1A67EB01084F4622460120A9
:10177000002100F01FF817EB00094E41201EA4F1D4
:101780000104DFDC484631462A464346BDE8F09F67
:10179000064C074D06E0E06840F0010394E80700BE
:1017A00098471034AC42F6D3FEF7C6FC3C1D000847
:1017B0005C1D0008202A04DB203A00FA02F1002018
:1017C00070479140C2F1200320FA03F3194390407F
:1017D0007047202A04DB203A21FA02F000217047EA
:1017E00021FA02F3D040C2F1200291400843194689
:1017F000704770B58D1810F8014B14F0030201D139
:1018000010F8012B231106D110F8013B03E010F86A
:10181000016B01F8016B521EF9D1ABB110F8012B2D
:1018200004F00C048A1A0C2C03D0A2EB84129B1C2B
:1018300008E010F8014BA2EB0422F8E712F8014B84
:1018400001F8014B5B1EF9D5A942D4D3002070BD2D
:101850000FB4054B10B503A9044A029800F018F81C
:1018600010BC5DF814FB00009D0F0008280200204A
:1018700002E008C8121F08C1002AFAD17047704759
:10188000002001E001C1121F002AFBD170470000B7
:101890002DE9FF4F8DB00F460546002606E02528AE
:1018A0000BD0DDE90F1290476D1C761C28780028BC
:1018B000F5D111B03046BDE8F08F0024A246A14614
:1018C0000122EC4900E0044315F8013F203B02FAF5
:1018D00003F00842F7D128782A2810D06FF02F02A1
:1018E0002878A0F13001092914D80AEB8A0102EB0B
:1018F000410144F0020400EB010A6D1CF0E701CF46
:101900005FEA000A03D544F40054CAF1000A44F027
:1019100002046D1C28782E2817D115F8010F44F009
:1019200004042A280ED06FF02F022878A0F130018D
:1019300009290AD809EB890102EB410100EB0109F1
:101940006D1CF2E757F8049B6D1C28786C280FD0AB
:1019500006DC4C2817D068280DD06A2814D104E082
:10196000742810D07A280FD10DE044F400140AE056
:1019700044F4801401E044F440146978814202D1B7
:1019800004F580146D1C6D1C2A786E2A1FD00CDCA7
:10199000632A31D004DC002A8BD0582A11D1A3E06D
:1019A000642A68D0692A0CD165E0732A2ED004DC41
:1019B0006F2A73D0702A04D19BE0752A6FD0782AE1
:1019C0006ED01046DDE90F129047761C50E1C4F34B
:1019D0000250022806D0032809D0042801CF09D0DC
:1019E000066045E101CFF117C0E9006140E101CF98
:1019F00006803DE106703BE117F8040B8DF800000E
:101A000000208DF80100EB46012003E057F804BBED
:101A10004FF0FF3061074FF0000102D40DE008F1F4
:101A20000101884649450FDA8045F8DB1BF80810AC
:101A30000029F4D108E008F1010188468142FADB6F
:101A40001BF808100029F6D1DDE90F23AAEB0800E6
:101A50008146214600F036F9304400EB080604E0E8
:101A6000DDE90F121BF8010B9047B8F10108F7D21E
:101A700021464846F7E00A21C4F302534FF0000B19
:101A80000891022B04D001CFC117032B09D00AE023
:101A9000FF1D27F00707F7E8020108E032E01FE02A
:101AA00020E000B2C117042B01D140B2C117031EC0
:101AB00071F1000307DA4FF0000CD0EB0C006CEB77
:101AC00001012D2302E0230504D52B238DF82430BA
:101AD000012303E0E30701D02023F7E7984658E00D
:101AE0000A2110E010210EE010204FF0000B0890AA
:101AF0000CE010214FF0000B44F004044FF00809F3
:101B0000089103E008214FF0000B0891C4F3025341
:101B1000022B04D001CF0021032B06D006E0FF1DCD
:101B200027F00707F7E8020103E080B2042B00D199
:101B3000C0B24FF0000823072BD5702A07D0DDF87C
:101B400020C08CF0100C5CEA0B0C05D00EE040239A
:101B50008DF82430012308E050EA010306D0302339
:101B60008DF824308DF8252002239846DDF820C01A
:101B70008CF0080C5CEA0B0C0BD150EA010301D18C
:101B8000630706D530238DF824304FF00108A9F102
:101B90000109582A04D038A20B9208AA0A920BE035
:101BA0003AA2F9E75B46089AFFF7C1FD0B9B9B5CE5
:101BB0000A9A521E0A92137050EA0102F2D10A9850
:101BC000ADEB000000F1200B600702D524F4803457
:101BD00001E04FF00109D94502DDA9EB0B0000E05F
:101BE000002000EB0B0141440890AAEB010AE0033E
:101BF00006D4DDE90F232146504600F063F8064481
:101C00004FF0000908E009A911F80900DDE90F12F9
:101C1000904709F10109761CC145F4DBE0030CD5BE
:101C2000DDE90F232146504600F04CF8064404E05D
:101C3000DDE90F1230209047761C0899481E089065
:101C40000029F5DC08E00A980A990078491C0A91F5
:101C5000DDE90F129047761CBBF10001ABF1010BDF
:101C6000F1DC21465046DDE90F2300F019F8064467
:101C70006D1C1BE60928010030313233343536370C
:101C800038396162636465660000000030313233C8
:101C90003435363738394142434445460000000068
:101CA0002DE9F041044600251E461746880404D459
:101CB00005E039462020B0476D1C641EF9D5284642
:101CC000BDE8F0812DE9F041044600251E4690460E
:101CD000C80301D5302700E02027880404D505E09B
:101CE00041463846B0476D1C641EF9D52846BDE80C
:101CF000F08100000000000100000002000000046C
:101D0000000000080000001000000020000000405B
:101D1000000000800000001B0000003602030101EB
:101D20000102030101010203030101020E0B0D096F
:101D3000090E0B0D0D090E0B0B0D090E5C1D000895
:101D4000000000202C020000F2170008801F00088D
:101D50002C0200200C04000080180008500600A28D
:101D60004A040001600901020304060708090C6126
:101D70001000FF0002040608637C777BF26B6FC5DE
:101D80003001672BFED7AB76CA82C97DFA5947F07E
:101D9000ADD4A2AF9CA472C0B7FD9326363FF7CC5A
:101DA00034A5E5F171D8311504C723C31896059AF7
:101DB000071280E2EB27B27509832C1A1B6E5AA01A
:101DC000523BD6B329E32F8453D100ED20FCB15B05
:101DD0006ACBBE394A4C58CFD0EFAAFB434D33856E
:101DE00045F9027F503C9FA851A3408F929D38F542
:101DF000BCB6DA2110FFF3D2CD0C13EC5F97441779
:101E0000C4A77E3D645D197360814FDC222A9088EF
:101E100046EEB814DE5E0BDBE0323A0A4906245C7B
:101E2000C2D3AC629195E479E7C8376D8DD54EA9E0
:101E30006C56F4EA657AAE08BA78252E1CA6B4C6AC
:101E4000E8DD741F4BBD8B8A703EB5664803F60E05
:101E5000613557B986C11D9EE1F8981169D98E94F4
:101E60009B1E87E9CE5528DF8CA1890DBFE642680D
:101E7000419900FF002D0FB054BB1652096AD530AE
:101E800036A538BF40A39E81F3D7FB7CE339829B04
:101E90002FFF87348E4344C4DEE9CB547B9432A6B3
:101EA000C2233DEE4C950B42FAC34E082EA1662884
:101EB000D924B2765BA2496D8BD12572F8F664867F
:101EC000689816D4A45CCC5D65B6926C704850FDE1
:101ED000EDB9DA5E154657A78D9D8490D8AB008C7E
:101EE000BCD30AF7E45805B8B34506D02C1E8FCAF8
:101EF0003F0F02C1AFBD0301138A6B3A9111414FED
:101F000067DCEA97F2CFCEF0B4E67396AC7422E7C2
:101F1000AD3585E2F937E81C75DF6E47F11A711DA2
:101F200029C5896FB7620EAA18BE1BFC563E4BC668
:101F3000D279209ADBC0FE78CD5AF41FDDA8338811
:101F400007C731B11210592780EC5F60517FA91982
:101F5000B54A0D2DE57A9F93C99CEFA0E03B4DAEAD
:101F60002AF5B0C8EBBB3C83539961172B047EBAAA
:101F700077D6262809E169146355210C7D240000D9
:0400000508000131BD
:00000001FF
